:03000000020948AA
:0C094800787FE4F6D8FD758110020800ED
:100938003F065B4F666D7D077F6FFEFDFBF7EFDFC0
:10080000E4F508F509F50A120928AE08AF097C00DD
:100810007D0A1208948D0BAE08AF097C007D0A1288
:1008200008947C007D0A1208948D0CAE08AF097CF8
:10083000007D641208947C007D0A1208948D0DAE30
:1008400008AF097C037DE81208947C007D0A120839
:10085000948D0EAE08AF097C277D101208947C00A1
:100860007D0A1208948D0FE4F510E510900942936B
:10087000F580740B2510F8E690093893F5A07F05F4
:100880007E0012090A7580FF0510E510C39405402B
:04089000D902080A77
:10092800758901758C2C758A13D2AFD2A9D28C2205
:03000B000208E9FF
:1008E900C0E0C0D0758C2C758A13050AE50AB414CA
:1008F9000B0509E50970020508750A00D0D0D0E09A
:0109090032BB
:10090A00D3EF9400EE940040147D6E7C00ED1D70D0
:0D091A00011CED4C70F7EF1F70E61E80E32E
:0109270022AD
:10089400BC000BBE0029EF8DF084FFADF022E4CC48
:1008A400F875F008EF2FFFEE33FEEC33FCEE9DEC11
:1008B400984005FCEE9DFE0FD5F0E9E4CEFD22ED57
:1008C400F8F5F0EE8420D21CFEADF075F008EF2FA1
:1008D400FFED33FD4007985006D5F0F222C398FD92
:0508E4000FD5F0EA222F
:00000001FF
